{
  "contractName": "FlightSuretyData",
  "abi": [
    {
      "constant": true,
      "inputs": [],
      "name": "INSURANCE_PRICE_LIMIT",
      "outputs": [
        {
          "name": "",
          "type": "uint256"
        }
      ],
      "payable": false,
      "stateMutability": "view",
      "type": "function"
    },
    {
      "constant": true,
      "inputs": [
        {
          "name": "",
          "type": "uint256"
        }
      ],
      "name": "passengerAddresses",
      "outputs": [
        {
          "name": "",
          "type": "address"
        }
      ],
      "payable": false,
      "stateMutability": "view",
      "type": "function"
    },
    {
      "constant": true,
      "inputs": [],
      "name": "MINIMUM_FUNDS",
      "outputs": [
        {
          "name": "",
          "type": "uint256"
        }
      ],
      "payable": false,
      "stateMutability": "view",
      "type": "function"
    },
    {
      "constant": true,
      "inputs": [],
      "name": "airlinesCount",
      "outputs": [
        {
          "name": "",
          "type": "uint256"
        }
      ],
      "payable": false,
      "stateMutability": "view",
      "type": "function"
    },
    {
      "inputs": [],
      "payable": false,
      "stateMutability": "nonpayable",
      "type": "constructor"
    },
    {
      "payable": true,
      "stateMutability": "payable",
      "type": "fallback"
    },
    {
      "constant": true,
      "inputs": [],
      "name": "isOperational",
      "outputs": [
        {
          "name": "",
          "type": "bool"
        }
      ],
      "payable": false,
      "stateMutability": "view",
      "type": "function"
    },
    {
      "constant": false,
      "inputs": [
        {
          "name": "contractAddress",
          "type": "address"
        }
      ],
      "name": "authorizeCaller",
      "outputs": [],
      "payable": false,
      "stateMutability": "nonpayable",
      "type": "function"
    },
    {
      "constant": true,
      "inputs": [
        {
          "name": "contractAddress",
          "type": "address"
        }
      ],
      "name": "isAuthorized",
      "outputs": [
        {
          "name": "",
          "type": "bool"
        }
      ],
      "payable": false,
      "stateMutability": "view",
      "type": "function"
    },
    {
      "constant": false,
      "inputs": [
        {
          "name": "contractAddress",
          "type": "address"
        }
      ],
      "name": "deauthorizeCaller",
      "outputs": [],
      "payable": false,
      "stateMutability": "nonpayable",
      "type": "function"
    },
    {
      "constant": false,
      "inputs": [
        {
          "name": "mode",
          "type": "bool"
        }
      ],
      "name": "setOperatingStatus",
      "outputs": [],
      "payable": false,
      "stateMutability": "nonpayable",
      "type": "function"
    },
    {
      "constant": true,
      "inputs": [
        {
          "name": "airline",
          "type": "address"
        }
      ],
      "name": "isActive",
      "outputs": [
        {
          "name": "",
          "type": "bool"
        }
      ],
      "payable": false,
      "stateMutability": "view",
      "type": "function"
    },
    {
      "constant": true,
      "inputs": [
        {
          "name": "airline",
          "type": "address"
        }
      ],
      "name": "isRegistered",
      "outputs": [
        {
          "name": "",
          "type": "bool"
        }
      ],
      "payable": false,
      "stateMutability": "view",
      "type": "function"
    },
    {
      "constant": false,
      "inputs": [
        {
          "name": "airlineAddress",
          "type": "address"
        },
        {
          "name": "name",
          "type": "string"
        }
      ],
      "name": "registerAirline",
      "outputs": [
        {
          "name": "",
          "type": "bool"
        }
      ],
      "payable": false,
      "stateMutability": "nonpayable",
      "type": "function"
    },
    {
      "constant": true,
      "inputs": [
        {
          "name": "airline",
          "type": "address"
        }
      ],
      "name": "getAirlineVotes",
      "outputs": [
        {
          "name": "votes",
          "type": "uint256"
        }
      ],
      "payable": false,
      "stateMutability": "view",
      "type": "function"
    },
    {
      "constant": false,
      "inputs": [
        {
          "name": "flightCode",
          "type": "string"
        }
      ],
      "name": "buy",
      "outputs": [
        {
          "name": "",
          "type": "uint256"
        },
        {
          "name": "",
          "type": "address"
        },
        {
          "name": "",
          "type": "uint256"
        }
      ],
      "payable": true,
      "stateMutability": "payable",
      "type": "function"
    },
    {
      "constant": false,
      "inputs": [
        {
          "name": "flightCode",
          "type": "string"
        }
      ],
      "name": "creditInsurees",
      "outputs": [],
      "payable": false,
      "stateMutability": "nonpayable",
      "type": "function"
    },
    {
      "constant": true,
      "inputs": [],
      "name": "getCreditToPay",
      "outputs": [
        {
          "name": "",
          "type": "uint256"
        }
      ],
      "payable": false,
      "stateMutability": "view",
      "type": "function"
    },
    {
      "constant": false,
      "inputs": [
        {
          "name": "insuredPassenger",
          "type": "address"
        }
      ],
      "name": "withdraw",
      "outputs": [
        {
          "name": "",
          "type": "uint256"
        },
        {
          "name": "",
          "type": "uint256"
        },
        {
          "name": "",
          "type": "uint256"
        },
        {
          "name": "",
          "type": "uint256"
        },
        {
          "name": "",
          "type": "address"
        },
        {
          "name": "",
          "type": "address"
        }
      ],
      "payable": false,
      "stateMutability": "nonpayable",
      "type": "function"
    },
    {
      "constant": false,
      "inputs": [],
      "name": "fund",
      "outputs": [],
      "payable": true,
      "stateMutability": "payable",
      "type": "function"
    },
    {
      "constant": true,
      "inputs": [
        {
          "name": "airline",
          "type": "address"
        }
      ],
      "name": "isAirline",
      "outputs": [
        {
          "name": "",
          "type": "bool"
        }
      ],
      "payable": false,
      "stateMutability": "view",
      "type": "function"
    }
  ],
  "bytecode": "0x60806040526001600060146101000a81548160ff0219169083151502179055503480156200002c57600080fd5b50336000806101000a81548173ffffffffffffffffffffffffffffffffffffffff021916908373ffffffffffffffffffffffffffffffffffffffff160217905550600060058190555060018060003373ffffffffffffffffffffffffffffffffffffffff1673ffffffffffffffffffffffffffffffffffffffff168152602001908152602001600020819055506000604051908082528060200260200182016040528015620000ea5781602001602082028038833980820191505090505b5060049080519060200190620001029291906200026f565b5060a0604051908101604052803373ffffffffffffffffffffffffffffffffffffffff1681526020016001151581526020016040805190810160405280600a81526020017f55646163697479416972000000000000000000000000000000000000000000008152508152602001600081526020016000815250600260003373ffffffffffffffffffffffffffffffffffffffff1673ffffffffffffffffffffffffffffffffffffffff16815260200190815260200160002060008201518160000160006101000a81548173ffffffffffffffffffffffffffffffffffffffff021916908373ffffffffffffffffffffffffffffffffffffffff16021790555060208201518160000160146101000a81548160ff02191690831515021790555060408201518160010190805190602001906200023f929190620002fe565b506060820151816002015560808201518160030155905050600560008154809291906001019190505550620003f3565b828054828255906000526020600020908101928215620002eb579160200282015b82811115620002ea5782518260006101000a81548173ffffffffffffffffffffffffffffffffffffffff021916908373ffffffffffffffffffffffffffffffffffffffff1602179055509160200191906001019062000290565b5b509050620002fa919062000385565b5090565b828054600181600116156101000203166002900490600052602060002090601f016020900481019282601f106200034157805160ff191683800117855562000372565b8280016001018555821562000372579182015b828111156200037157825182559160200191906001019062000354565b5b509050620003819190620003cb565b5090565b620003c891905b80821115620003c457600081816101000a81549073ffffffffffffffffffffffffffffffffffffffff0219169055506001016200038c565b5090565b90565b620003f091905b80821115620003ec576000816000905550600101620003d2565b5090565b90565b6123d680620004036000396000f300608060405260043610610107576000357c0100000000000000000000000000000000000000000000000000000000900463ffffffff1680630e248a1114610111578063110466ed1461016c57806329e18e5d1461019b5780632c388d5d146101c65780633fcf1cf414610209578063492cc7691461024457806351cff8d9146102c0578063536c8e83146103925780636873c21d146103ff5780636d47c815146104425780637001ce8814610499578063954a7df6146104c45780639c3ffb59146104ef5780639f8a13d71461051a578063b60d428814610575578063c3c5a5471461057f578063cd905dff146105da578063ee38a74914610609578063fe9fbb801461067c575b61010f6106d7565b005b34801561011d57600080fd5b50610152600480360381019080803573ffffffffffffffffffffffffffffffffffffffff169060200190929190505050610823565b604051808215151515815260200191505060405180910390f35b34801561017857600080fd5b506101996004803603810190808035151590602001909291905050506108ce565b005b3480156101a757600080fd5b506101b06109af565b6040518082815260200191505060405180910390f35b3480156101d257600080fd5b50610207600480360381019080803573ffffffffffffffffffffffffffffffffffffffff1690602001909291905050506109bb565b005b34801561021557600080fd5b50610242600480360381019080803590602001908201803590602001919091929391929390505050610ac6565b005b610270600480360381019080803590602001908201803590602001919091929391929390505050610e9d565b604051808481526020018373ffffffffffffffffffffffffffffffffffffffff1673ffffffffffffffffffffffffffffffffffffffff168152602001828152602001935050505060405180910390f35b3480156102cc57600080fd5b50610301600480360381019080803573ffffffffffffffffffffffffffffffffffffffff1690602001909291905050506113ab565b604051808781526020018681526020018581526020018481526020018373ffffffffffffffffffffffffffffffffffffffff1673ffffffffffffffffffffffffffffffffffffffff1681526020018273ffffffffffffffffffffffffffffffffffffffff1673ffffffffffffffffffffffffffffffffffffffff168152602001965050505050505060405180910390f35b34801561039e57600080fd5b506103bd60048036038101908080359060200190929190505050611801565b604051808273ffffffffffffffffffffffffffffffffffffffff1673ffffffffffffffffffffffffffffffffffffffff16815260200191505060405180910390f35b34801561040b57600080fd5b50610440600480360381019080803573ffffffffffffffffffffffffffffffffffffffff16906020019092919050505061183f565b005b34801561044e57600080fd5b50610483600480360381019080803573ffffffffffffffffffffffffffffffffffffffff169060200190929190505050611949565b6040518082815260200191505060405180910390f35b3480156104a557600080fd5b506104ae611995565b6040518082815260200191505060405180910390f35b3480156104d057600080fd5b506104d96119a1565b6040518082815260200191505060405180910390f35b3480156104fb57600080fd5b506105046119a7565b6040518082815260200191505060405180910390f35b34801561052657600080fd5b5061055b600480360381019080803573ffffffffffffffffffffffffffffffffffffffff1690602001909291905050506119f1565b604051808215151515815260200191505060405180910390f35b61057d6106d7565b005b34801561058b57600080fd5b506105c0600480360381019080803573ffffffffffffffffffffffffffffffffffffffff169060200190929190505050611a48565b604051808215151515815260200191505060405180910390f35b3480156105e657600080fd5b506105ef611aa1565b604051808215151515815260200191505060405180910390f35b34801561061557600080fd5b50610662600480360381019080803573ffffffffffffffffffffffffffffffffffffffff169060200190929190803590602001908201803590602001919091929391929390505050611ab7565b604051808215151515815260200191505060405180910390f35b34801561068857600080fd5b506106bd600480360381019080803573ffffffffffffffffffffffffffffffffffffffff169060200190929190505050611fcb565b604051808215151515815260200191505060405180910390f35b60008060149054906101000a900460ff161515610782576040517f08c379a00000000000000000000000000000000000000000000000000000000081526004018080602001828103825260258152602001807f436f6e74726163742069732063757272656e746c79206e6f74206f706572617481526020017f696f6e616c00000000000000000000000000000000000000000000000000000081525060400191505060405180910390fd5b600260003373ffffffffffffffffffffffffffffffffffffffff1673ffffffffffffffffffffffffffffffffffffffff1681526020019081526020016000206002015490506107da348261201690919063ffffffff16565b600260003373ffffffffffffffffffffffffffffffffffffffff1673ffffffffffffffffffffffffffffffffffffffff1681526020019081526020016000206002018190555050565b60008173ffffffffffffffffffffffffffffffffffffffff16600260008473ffffffffffffffffffffffffffffffffffffffff1673ffffffffffffffffffffffffffffffffffffffff16815260200190815260200160002060000160009054906101000a900473ffffffffffffffffffffffffffffffffffffffff1673ffffffffffffffffffffffffffffffffffffffff1614156108c457600190506108c9565b600090505b919050565b6000809054906101000a900473ffffffffffffffffffffffffffffffffffffffff1673ffffffffffffffffffffffffffffffffffffffff163373ffffffffffffffffffffffffffffffffffffffff16141515610992576040517f08c379a000000000000000000000000000000000000000000000000000000000815260040180806020018281038252601c8152602001807f43616c6c6572206973206e6f7420636f6e7472616374206f776e65720000000081525060200191505060405180910390fd5b80600060146101000a81548160ff02191690831515021790555050565b670de0b6b3a764000081565b6000809054906101000a900473ffffffffffffffffffffffffffffffffffffffff1673ffffffffffffffffffffffffffffffffffffffff163373ffffffffffffffffffffffffffffffffffffffff16141515610a7f576040517f08c379a000000000000000000000000000000000000000000000000000000000815260040180806020018281038252601c8152602001807f43616c6c6572206973206e6f7420636f6e7472616374206f776e65720000000081525060200191505060405180910390fd5b60018060008373ffffffffffffffffffffffffffffffffffffffff1673ffffffffffffffffffffffffffffffffffffffff1681526020019081526020016000208190555050565b60008060008060149054906101000a900460ff161515610b74576040517f08c379a00000000000000000000000000000000000000000000000000000000081526004018080602001828103825260258152602001807f436f6e74726163742069732063757272656e746c79206e6f74206f706572617481526020017f696f6e616c00000000000000000000000000000000000000000000000000000081525060400191505060405180910390fd5b600092505b600480549050831015610e9657600060036000600486815481101515610b9b57fe5b9060005260206000200160009054906101000a900473ffffffffffffffffffffffffffffffffffffffff1673ffffffffffffffffffffffffffffffffffffffff1673ffffffffffffffffffffffffffffffffffffffff168152602001908152602001600020600101868660405180838380828437820191505092505050908152602001604051809103902054141515610e895760036000600485815481101515610c4157fe5b9060005260206000200160009054906101000a900473ffffffffffffffffffffffffffffffffffffffff1673ffffffffffffffffffffffffffffffffffffffff1673ffffffffffffffffffffffffffffffffffffffff16815260200190815260200160002060020154915060036000600485815481101515610cbf57fe5b9060005260206000200160009054906101000a900473ffffffffffffffffffffffffffffffffffffffff1673ffffffffffffffffffffffffffffffffffffffff1673ffffffffffffffffffffffffffffffffffffffff1681526020019081526020016000206001018585604051808383808284378201915050925050509081526020016040518091039020549050600060036000600486815481101515610d6257fe5b9060005260206000200160009054906101000a900473ffffffffffffffffffffffffffffffffffffffff1673ffffffffffffffffffffffffffffffffffffffff1673ffffffffffffffffffffffffffffffffffffffff168152602001908152602001600020600101868660405180838380828437820191505092505050908152602001604051809103902081905550610e0560028261203790919063ffffffff16565b8183010160036000600486815481101515610e1c57fe5b9060005260206000200160009054906101000a900473ffffffffffffffffffffffffffffffffffffffff1673ffffffffffffffffffffffffffffffffffffffff1673ffffffffffffffffffffffffffffffffffffffff168152602001908152602001600020600201819055505b8280600101935050610b79565b5050505050565b60008060008060149054906101000a900460ff161515610f4b576040517f08c379a00000000000000000000000000000000000000000000000000000000081526004018080602001828103825260258152602001807f436f6e74726163742069732063757272656e746c79206e6f74206f706572617481526020017f696f6e616c00000000000000000000000000000000000000000000000000000081525060400191505060405180910390fd5b3273ffffffffffffffffffffffffffffffffffffffff163373ffffffffffffffffffffffffffffffffffffffff16141515610fee576040517f08c379a00000000000000000000000000000000000000000000000000000000081526004018080602001828103825260158152602001807f436f6e747261637473206e6f7420616c6c6f776564000000000000000000000081525060200191505060405180910390fd5b60003411151561108c576040517f08c379a00000000000000000000000000000000000000000000000000000000081526004018080602001828103825260338152602001807f596f75206e65656420746f2070617920736f6d657468696e6720746f2062757981526020017f206120666c6967687420696e737572616e63650000000000000000000000000081525060400191505060405180910390fd5b61109533612061565b15156111025760043390806001815401808255809150509060018203906000526020600020016000909192909190916101000a81548173ffffffffffffffffffffffffffffffffffffffff021916908373ffffffffffffffffffffffffffffffffffffffff160217905550505b3373ffffffffffffffffffffffffffffffffffffffff16600360003373ffffffffffffffffffffffffffffffffffffffff1673ffffffffffffffffffffffffffffffffffffffff16815260200190815260200160002060000160009054906101000a900473ffffffffffffffffffffffffffffffffffffffff1673ffffffffffffffffffffffffffffffffffffffff161415156112c75760408051908101604052803373ffffffffffffffffffffffffffffffffffffffff1681526020016000815250600360003373ffffffffffffffffffffffffffffffffffffffff1673ffffffffffffffffffffffffffffffffffffffff16815260200190815260200160002060008201518160000160006101000a81548173ffffffffffffffffffffffffffffffffffffffff021916908373ffffffffffffffffffffffffffffffffffffffff1602179055506020820151816002015590505034600360003373ffffffffffffffffffffffffffffffffffffffff1673ffffffffffffffffffffffffffffffffffffffff168152602001908152602001600020600101868660405180838380828437820191505092505050908152602001604051809103902081905550611332565b34600360003373ffffffffffffffffffffffffffffffffffffffff1673ffffffffffffffffffffffffffffffffffffffff1681526020019081526020016000206001018686604051808383808284378201915050925050509081526020016040518091039020819055505b670de0b6b3a76400003411156113a4573373ffffffffffffffffffffffffffffffffffffffff166108fc611377670de0b6b3a76400003461210690919063ffffffff16565b9081150290604051600060405180830381858888f193505050501580156113a2573d6000803e3d6000fd5b505b9250925092565b60008060008060008060008060008060149054906101000a900460ff161515611462576040517f08c379a00000000000000000000000000000000000000000000000000000000081526004018080602001828103825260258152602001807f436f6e74726163742069732063757272656e746c79206e6f74206f706572617481526020017f696f6e616c00000000000000000000000000000000000000000000000000000081525060400191505060405180910390fd5b3273ffffffffffffffffffffffffffffffffffffffff168a73ffffffffffffffffffffffffffffffffffffffff16141515611505576040517f08c379a00000000000000000000000000000000000000000000000000000000081526004018080602001828103825260158152602001807f436f6e747261637473206e6f7420616c6c6f776564000000000000000000000081525060200191505060405180910390fd5b6000600360008c73ffffffffffffffffffffffffffffffffffffffff1673ffffffffffffffffffffffffffffffffffffffff168152602001908152602001600020600201541115156115e5576040517f08c379a00000000000000000000000000000000000000000000000000000000081526004018080602001828103825260388152602001807f54686520636f6d70616e79206469646e27742070757420616e79206d6f6e657981526020017f20746f206265207769746864726177656420627920796f75000000000000000081525060400191505060405180910390fd5b3073ffffffffffffffffffffffffffffffffffffffff16319250600360008b73ffffffffffffffffffffffffffffffffffffffff1673ffffffffffffffffffffffffffffffffffffffff168152602001908152602001600020600201549150813073ffffffffffffffffffffffffffffffffffffffff16311115156116f8576040517f08c379a00000000000000000000000000000000000000000000000000000000081526004018080602001828103825260398152602001807f54686520636f6e747261637420646f6573206e6f74206861766520656e6f756781526020017f682066756e647320746f2070617920746865206372656469740000000000000081525060400191505060405180910390fd5b6000600360008c73ffffffffffffffffffffffffffffffffffffffff1673ffffffffffffffffffffffffffffffffffffffff168152602001908152602001600020600201819055508973ffffffffffffffffffffffffffffffffffffffff166108fc839081150290604051600060405180830381858888f19350505050158015611786573d6000803e3d6000fd5b50600360008b73ffffffffffffffffffffffffffffffffffffffff1673ffffffffffffffffffffffffffffffffffffffff16815260200190815260200160002060020154905082823073ffffffffffffffffffffffffffffffffffffffff1631838d3098509850985098509850985050505091939550919395565b60048181548110151561181057fe5b906000526020600020016000915054906101000a900473ffffffffffffffffffffffffffffffffffffffff1681565b6000809054906101000a900473ffffffffffffffffffffffffffffffffffffffff1673ffffffffffffffffffffffffffffffffffffffff163373ffffffffffffffffffffffffffffffffffffffff16141515611903576040517f08c379a000000000000000000000000000000000000000000000000000000000815260040180806020018281038252601c8152602001807f43616c6c6572206973206e6f7420636f6e7472616374206f776e65720000000081525060200191505060405180910390fd5b600160008273ffffffffffffffffffffffffffffffffffffffff1673ffffffffffffffffffffffffffffffffffffffff1681526020019081526020016000206000905550565b6000600260008373ffffffffffffffffffffffffffffffffffffffff1673ffffffffffffffffffffffffffffffffffffffff168152602001908152602001600020600301549050919050565b678ac7230489e8000081565b60055481565b6000600360003373ffffffffffffffffffffffffffffffffffffffff1673ffffffffffffffffffffffffffffffffffffffff16815260200190815260200160002060020154905090565b6000678ac7230489e80000600260008473ffffffffffffffffffffffffffffffffffffffff1673ffffffffffffffffffffffffffffffffffffffff1681526020019081526020016000206002015410159050919050565b6000600260008373ffffffffffffffffffffffffffffffffffffffff1673ffffffffffffffffffffffffffffffffffffffff16815260200190815260200160002060000160149054906101000a900460ff169050919050565b60008060149054906101000a900460ff16905090565b60008060149054906101000a900460ff161515611b62576040517f08c379a00000000000000000000000000000000000000000000000000000000081526004018080602001828103825260258152602001807f436f6e74726163742069732063757272656e746c79206e6f74206f706572617481526020017f696f6e616c00000000000000000000000000000000000000000000000000000081525060400191505060405180910390fd5b60018060003373ffffffffffffffffffffffffffffffffffffffff1673ffffffffffffffffffffffffffffffffffffffff16815260200190815260200160002054141515611c3e576040517f08c379a00000000000000000000000000000000000000000000000000000000081526004018080602001828103825260248152602001807f43616c6c6572206973206e6f7420616e20617574686f72697a656420636f6e7481526020017f726163740000000000000000000000000000000000000000000000000000000081525060400191505060405180910390fd5b600073ffffffffffffffffffffffffffffffffffffffff168473ffffffffffffffffffffffffffffffffffffffff1614151515611d09576040517f08c379a00000000000000000000000000000000000000000000000000000000081526004018080602001828103825260298152602001807f276169726c696e654164647265737327206d75737420626520612076616c696481526020017f20616464726573732e000000000000000000000000000000000000000000000081525060400191505060405180910390fd5b600260008573ffffffffffffffffffffffffffffffffffffffff1673ffffffffffffffffffffffffffffffffffffffff16815260200190815260200160002060000160149054906101000a900460ff16151515611dce576040517f08c379a000000000000000000000000000000000000000000000000000000000815260040180806020018281038252601e8152602001807f4169726c696e6520697320616c726561647920726567697374657265642e000081525060200191505060405180910390fd5b600460ff166005541015611f425760a0604051908101604052808573ffffffffffffffffffffffffffffffffffffffff16815260200160011515815260200184848080601f0160208091040260200160405190810160405280939291908181526020018383808284378201915050505050508152602001600081526020016001815250600260008673ffffffffffffffffffffffffffffffffffffffff1673ffffffffffffffffffffffffffffffffffffffff16815260200190815260200160002060008201518160000160006101000a81548173ffffffffffffffffffffffffffffffffffffffff021916908373ffffffffffffffffffffffffffffffffffffffff16021790555060208201518160000160146101000a81548160ff0219169083151502179055506040820151816001019080519060200190611f13929190612305565b506060820151816002015560808201518160030155905050600560008154809291906001019190505550611fc0565b611f4b84612127565b1515611fbf576040517f08c379a000000000000000000000000000000000000000000000000000000000815260040180806020018281038252601e8152602001807f416e206572726f722068617070656e6564207768696c6520766f74696e67000081525060200191505060405180910390fd5b5b600190509392505050565b600060018060008473ffffffffffffffffffffffffffffffffffffffff1673ffffffffffffffffffffffffffffffffffffffff16815260200190815260200160002054149050919050565b600080828401905083811015151561202d57600080fd5b8091505092915050565b60008060008311151561204957600080fd5b828481151561205457fe5b0490508091505092915050565b60008060009150600090505b6004805490508110156120fd578273ffffffffffffffffffffffffffffffffffffffff166004828154811015156120a057fe5b9060005260206000200160009054906101000a900473ffffffffffffffffffffffffffffffffffffffff1673ffffffffffffffffffffffffffffffffffffffff1614156120f057600191506120fd565b808060010191505061206d565b81915050919050565b60008083831115151561211857600080fd5b82840390508091505092915050565b600080600060149054906101000a900460ff1615156121d4576040517f08c379a00000000000000000000000000000000000000000000000000000000081526004018080602001828103825260258152602001807f436f6e74726163742069732063757272656e746c79206e6f74206f706572617481526020017f696f6e616c00000000000000000000000000000000000000000000000000000081525060400191505060405180910390fd5b60009050600260008473ffffffffffffffffffffffffffffffffffffffff1673ffffffffffffffffffffffffffffffffffffffff16815260200190815260200160002060030160008154809291906001019190505550612240600260055461203790919063ffffffff16565b600260008573ffffffffffffffffffffffffffffffffffffffff1673ffffffffffffffffffffffffffffffffffffffff168152602001908152602001600020600301541015156122f8576001600260008573ffffffffffffffffffffffffffffffffffffffff1673ffffffffffffffffffffffffffffffffffffffff16815260200190815260200160002060000160146101000a81548160ff0219169083151502179055506005600081548092919060010191905055505b6001905080915050919050565b828054600181600116156101000203166002900490600052602060002090601f016020900481019282601f1061234657805160ff1916838001178555612374565b82800160010185558215612374579182015b82811115612373578251825591602001919060010190612358565b5b5090506123819190612385565b5090565b6123a791905b808211156123a357600081600090555060010161238b565b5090565b905600a165627a7a723058209d83b8bb0d02f338d4e18b6468bfac20558ec7ac9d206fb9aafb438989ed89f50029",
  "source": "pragma solidity 0.4.24;\n\nimport \"./SafeMath.sol\";\n\ncontract FlightSuretyData {\n    using SafeMath for uint256;\n\n    /********************************************************************************************/\n    /*                                       DATA VARIABLES                                     */\n    /********************************************************************************************/\n\n    address private contractOwner;                                      // Account used to deploy contract\n    bool private operational = true;                                    // Blocks all state changes throughout the contract if false\n    // address payable public dataContractAddress;\n    mapping(address => uint256) private authorizedContracts;\n\n    // airlines info\n    struct Airline {\n        address airlineWallet;\n        bool isRegistered;\n        string name;\n        uint256 funded;\n        uint256 votes;\n    }\n    mapping(address => Airline) private airlines;\n\n    // passengers info\n    struct Passenger {\n        address passengerWallet;\n        mapping(string => uint256) boughtFlight;\n        uint256 credit;\n    }\n    mapping(address => Passenger) private passengers;\n    address[] public passengerAddresses;\n\n    uint256 public constant INSURANCE_PRICE_LIMIT = 1 ether;\n    uint256 public constant MINIMUM_FUNDS = 10 ether;\n\n    //multiparty variables\n    uint8 private constant MULTIPARTY_MIN_AIRLINES = 4;\n    uint256 public airlinesCount;\n\n    /********************************************************************************************/\n    /*                                       EVENT DEFINITIONS                                  */\n    /********************************************************************************************/\n\n    /**\n    * @dev Constructor\n    *      The deploying account becomes contractOwner\n    */\n    constructor\n                                (\n                                )\n                                public\n    {\n        contractOwner = msg.sender;\n        airlinesCount = 0;\n        authorizedContracts[msg.sender] = 1;\n        passengerAddresses = new address[](0);\n\n        // \tFirst airline is registered when contract is deployed.\n        airlines[msg.sender] = Airline({\n                                            airlineWallet: msg.sender,\n                                            isRegistered: true,\n                                            name: \"UdacityAir\",\n                                            funded: 0,\n                                            // votes: new address[](0)\n                                            votes: 0\n                                    });\n        airlinesCount++;\n    }\n\n    /********************************************************************************************/\n    /*                                       FUNCTION MODIFIERS                                 */\n    /********************************************************************************************/\n\n    // Modifiers help avoid duplication of code. They are typically used to validate something\n    // before a function is allowed to be executed.\n\n    /**\n    * @dev Modifier that requires the \"operational\" boolean variable to be \"true\"\n    *      This is used on all state changing functions to pause the contract in\n    *      the event there is an issue that needs to be fixed\n    */\n    modifier requireIsOperational()\n    {\n        require(operational, \"Contract is currently not operational\");\n        _;  // All modifiers require an \"_\" which indicates where the function body will be added\n    }\n\n    /**\n    * @dev Modifier that requires the \"ContractOwner\" account to be the function caller\n    */\n    modifier requireContractOwner()\n    {\n        require(msg.sender == contractOwner, \"Caller is not contract owner\");\n        _;\n    }\n\n    /**\n    * @dev Modifier that requires the calling App contract has been authorized\n    */\n    modifier requireIsCallerAuthorized()\n    {\n        require(authorizedContracts[msg.sender] == 1, \"Caller is not an authorized contract\");\n        _;\n    }\n\n    /********************************************************************************************/\n    /*                                       UTILITY FUNCTIONS                                  */\n    /********************************************************************************************/\n\n    /**\n    * @dev Get operating status of contract\n    *\n    * @return A bool that is the current operating status\n    */\n    function isOperational()\n                            public\n                            view\n                            returns(bool)\n    {\n        return operational;\n    }\n\n    function authorizeCaller\n                            (\n                                address contractAddress\n                            )\n                            external\n                            requireContractOwner\n    {\n        authorizedContracts[contractAddress] = 1;\n    }\n\n     function isAuthorized\n                            (\n                                address contractAddress\n                            )\n                            external\n                            view\n                            returns(bool)\n    {\n        return(authorizedContracts[contractAddress] == 1);\n    }\n\n    function deauthorizeCaller\n                            (\n                                address contractAddress\n                            )\n                            external\n                            requireContractOwner\n    {\n        delete authorizedContracts[contractAddress];\n    }\n\n    /**\n    * @dev Sets contract operations on/off\n    *\n    * When operational mode is disabled, all write transactions except for this one will fail\n    */\n    function setOperatingStatus\n                            (\n                                bool mode\n                            )\n                            external\n                            requireContractOwner\n    {\n        operational = mode;\n    }\n\n    /********************************************************************************************/\n    /*                                     SMART CONTRACT FUNCTIONS                             */\n    /********************************************************************************************/\n\n    function isActive ( address airline) public view returns(bool) {\n        return(airlines[airline].funded >= MINIMUM_FUNDS);\n    }\n\n    function isRegistered ( address airline) public view returns(bool) {\n        return(airlines[airline].isRegistered);\n    }\n\n   /**\n    * @dev Add an airline to the registration queue\n    *      Can only be called from FlightSuretyApp contract\n    *\n    */\n    function registerAirline\n                            (\n                                address airlineAddress,\n                                string name\n                            )\n                            external\n                            requireIsOperational\n                            requireIsCallerAuthorized\n                            returns (bool)\n    {\n        require(airlineAddress != address(0), \"'airlineAddress' must be a valid address.\");\n        require(!airlines[airlineAddress].isRegistered, \"Airline is already registered.\");\n\n        if(airlinesCount < MULTIPARTY_MIN_AIRLINES){\n            airlines[airlineAddress] = Airline({\n                                                airlineWallet: airlineAddress,\n                                                isRegistered: true,\n                                                name: name,\n                                                funded: 0,\n                                                votes: 1\n                                        });\n            airlinesCount++;\n        } else {\n            require(vote(airlineAddress), \"An error happened while voting\");\n        }\n        return (true);\n    }\n\n    function vote (address voted) internal requireIsOperational returns(bool) {\n        bool votingOK = false;\n        airlines[voted].votes++;\n        if (airlines[voted].votes >= airlinesCount.div(2)) {\n            airlines[voted].isRegistered = true;\n            airlinesCount++;\n        }\n        votingOK = true;\n        return votingOK;\n    }\n\n    function getAirlineVotes(address airline) public view returns (uint256 votes) {\n        return (airlines[airline].votes);\n    }\n\n   /**\n    * @dev Buy insurance for a flight\n    *\n    */\n    function buy\n                            (\n                               string flightCode\n                            )\n                            external\n                            payable\n                            requireIsOperational\n                            returns (uint256, address, uint256)\n    {\n        require(msg.sender == tx.origin, \"Contracts not allowed\");\n        require(msg.value > 0, 'You need to pay something to buy a flight insurance');\n\n        if(!checkIfContains(msg.sender)){\n            passengerAddresses.push(msg.sender);\n        }\n        if (passengers[msg.sender].passengerWallet != msg.sender) {\n            passengers[msg.sender] = Passenger({\n                                                passengerWallet: msg.sender,\n                                                credit: 0\n                                        });\n            passengers[msg.sender].boughtFlight[flightCode] = msg.value;\n        } else {\n            passengers[msg.sender].boughtFlight[flightCode] = msg.value;\n        }\n        if (msg.value > INSURANCE_PRICE_LIMIT) {\n            msg.sender.transfer(msg.value.sub(INSURANCE_PRICE_LIMIT));\n        }\n    }\n\n    function checkIfContains(address passenger) internal view returns(bool inList){\n        inList = false;\n        for (uint256 c = 0; c < passengerAddresses.length; c++) {\n            if (passengerAddresses[c] == passenger) {\n                inList = true;\n                break;\n            }\n        }\n        return inList;\n    }\n\n    /**\n     *  @dev Credits payouts to insurees\n    */\n    function creditInsurees\n                                (\n                                   string flightCode\n                                )\n                                external\n                                requireIsOperational\n    {\n        for (uint256 c = 0; c < passengerAddresses.length; c++) {\n            if(passengers[passengerAddresses[c]].boughtFlight[flightCode] != 0) {\n                uint256 savedCredit = passengers[passengerAddresses[c]].credit;\n                uint256 payedPrice = passengers[passengerAddresses[c]].boughtFlight[flightCode];\n                passengers[passengerAddresses[c]].boughtFlight[flightCode] = 0;\n                passengers[passengerAddresses[c]].credit = savedCredit + payedPrice + payedPrice.div(2);\n            }\n        }\n    }\n\n    function getCreditToPay() external view returns (uint256) {\n        return passengers[msg.sender].credit;\n    }\n    /**\n     *  @dev Transfers eligible payout funds to insuree\n     *\n    */\n    function withdraw\n                            (\n                                address insuredPassenger\n                            )\n                            public\n                            requireIsOperational\n                            returns (uint256, uint256, uint256, uint256, address, address)\n    {\n        require(insuredPassenger == tx.origin, \"Contracts not allowed\");\n        require(passengers[insuredPassenger].credit > 0, \"The company didn't put any money to be withdrawed by you\");\n        uint256 initialBalance = address(this).balance;\n        uint256 credit = passengers[insuredPassenger].credit;\n        require(address(this).balance > credit, \"The contract does not have enough funds to pay the credit\");\n        passengers[insuredPassenger].credit = 0;\n        insuredPassenger.transfer(credit);\n        uint256 finalCredit = passengers[insuredPassenger].credit;\n        return (initialBalance, credit, address(this).balance, finalCredit, insuredPassenger, address(this));\n    }\n\n   /**\n    * @dev Initial funding for the insurance. Unless there are too many delayed flights\n    *      resulting in insurance payouts, the contract should be self-sustaining\n    *\n    */\n    function fund\n                            (\n                            )\n                            public\n                            payable\n                            requireIsOperational\n    {\n        uint256 currentFunds = airlines[msg.sender].funded;\n        airlines[msg.sender].funded = currentFunds.add(msg.value);\n    }\n\n    function isAirline (\n                            address airline\n                        )\n                        external\n                        view\n                        returns (bool) {\n        if (airlines[airline].airlineWallet == airline) {\n            return true;\n        } else {\n            return false;\n        }\n    }\n\n    function getFlightKey\n                        (\n                            address airline,\n                            string memory flight,\n                            uint256 timestamp\n                        )\n                        internal\n                        pure\n                        returns(bytes32)\n    {\n        return keccak256(abi.encodePacked(airline, flight, timestamp));\n    }\n\n    /**\n    * @dev Fallback function for funding smart contract.\n    *\n    */\n    function()\n                            external\n                            payable\n    {\n        fund();\n    }\n\n\n}\n\n",
  "sourcePath": "/Users/yassin.belal/Documents/ethereum/Flight/FlightSurety/contracts/FlightSuretyData.sol",
  "compiler": {
    "name": "solc",
    "version": "0.4.24+commit.e67f0147.Emscripten.clang"
  },
  "schemaVersion": "3.4.10",
  "updatedAt": "2022-12-06T15:22:45.932Z",
  "networkType": "ethereum",
  "devdoc": {
    "methods": {
      "buy(string)": {
        "details": "Buy insurance for a flight    "
      },
      "creditInsurees(string)": {
        "details": "Credits payouts to insurees"
      },
      "fund()": {
        "details": "Initial funding for the insurance. Unless there are too many delayed flights     resulting in insurance payouts, the contract should be self-sustaining    "
      },
      "isOperational()": {
        "details": "Get operating status of contract",
        "return": "A bool that is the current operating status"
      },
      "registerAirline(address,string)": {
        "details": "Add an airline to the registration queue     Can only be called from FlightSuretyApp contract    "
      },
      "setOperatingStatus(bool)": {
        "details": "Sets contract operations on/off    * When operational mode is disabled, all write transactions except for this one will fail"
      },
      "withdraw(address)": {
        "details": "Transfers eligible payout funds to insuree    "
      }
    }
  },
  "userdoc": {
    "methods": {
      "isActive(address)": {
        "notice": "*****************************************************************************************"
      }
    }
  }
}